{
  "contractName": "Adoption",
  "abi": [
    {
      "constant": true,
      "inputs": [
        {
          "name": "",
          "type": "uint256"
        }
      ],
      "name": "adopters",
      "outputs": [
        {
          "name": "",
          "type": "address"
        }
      ],
      "payable": false,
      "stateMutability": "view",
      "type": "function"
    },
    {
      "inputs": [
        {
          "name": "_wallet",
          "type": "address"
        }
      ],
      "payable": false,
      "stateMutability": "nonpayable",
      "type": "constructor",
      "constant": false,
      "name": "adopt",
      "outputs": [
        {
          "name": "",
          "type": "uint256"
        }
      ]
    },
    {
      "constant": false,
      "inputs": [
        {
          "name": "petId",
          "type": "uint256"
        }
      ],
      "name": "adopt",
      "outputs": [
        {
          "name": "",
          "type": "uint256"
        }
      ],
      "payable": false,
      "stateMutability": "nonpayable",
      "type": "function"
    },
    {
      "constant": true,
      "inputs": [],
      "name": "getAdopters",
      "outputs": [
        {
          "name": "",
          "type": "address[16]"
        }
      ],
      "payable": false,
      "stateMutability": "view",
      "type": "function"
    },
    {
      "constant": false,
      "inputs": [],
      "name": "transferEther",
      "outputs": [],
      "payable": true,
      "stateMutability": "payable",
      "type": "function"
    }
  ],
  "bytecode": "0x608060405234801561001057600080fd5b5060405160208061045b8339810180604052602081101561003057600080fd5b810190808051906020019092919050505033601160006101000a81548173ffffffffffffffffffffffffffffffffffffffff021916908373ffffffffffffffffffffffffffffffffffffffff160217905550737b3ccb41958a31a4e2fbdff096e727f5557b234c601060006101000a81548173ffffffffffffffffffffffffffffffffffffffff021916908373ffffffffffffffffffffffffffffffffffffffff16021790555050610374806100e76000396000f3fe608060405260043610610062576000357c0100000000000000000000000000000000000000000000000000000000900463ffffffff1680633de4eb171461006757806343ae80d3146100ba5780638588b2c514610135578063c9b25f0f14610184575b600080fd5b34801561007357600080fd5b5061007c61018e565b6040518082601060200280838360005b838110156100a757808201518184015260208101905061008c565b5050505090500191505060405180910390f35b3480156100c657600080fd5b506100f3600480360360208110156100dd57600080fd5b810190808035906020019092919050505061020f565b604051808273ffffffffffffffffffffffffffffffffffffffff1673ffffffffffffffffffffffffffffffffffffffff16815260200191505060405180910390f35b34801561014157600080fd5b5061016e6004803603602081101561015857600080fd5b8101908080359060200190929190505050610244565b6040518082815260200191505060405180910390f35b61018c6102b9565b005b610196610324565b6000601080602002604051908101604052809291908260108015610205576020028201915b8160009054906101000a900473ffffffffffffffffffffffffffffffffffffffff1673ffffffffffffffffffffffffffffffffffffffff16815260200190600101908083116101bb575b5050505050905090565b60008160108110151561021e57fe5b016000915054906101000a900473ffffffffffffffffffffffffffffffffffffffff1681565b60008082101580156102575750600f8211155b151561026257600080fd5b3360008360108110151561027257fe5b0160006101000a81548173ffffffffffffffffffffffffffffffffffffffff021916908373ffffffffffffffffffffffffffffffffffffffff160217905550819050919050565b601060009054906101000a900473ffffffffffffffffffffffffffffffffffffffff1673ffffffffffffffffffffffffffffffffffffffff166108fc349081150290604051600060405180830381858888f19350505050158015610321573d6000803e3d6000fd5b50565b6102006040519081016040528060109060208202803883398082019150509050509056fea165627a7a7230582096f6f8b57bbf4336c5e22ca3556211f24f177204fd6f318a7a75656c1b1e5bc20029",
  "source": "pragma solidity ^0.5.0;\r\n\r\ncontract Adoption {\r\n\r\n\taddress[16] public adopters;\r\n\taddress payable wallet;\r\n\taddress owner;\r\n\r\n\t// Adopting a pet\r\n\tfunction adopt(uint petId) public returns (uint) {\r\n\t  require(petId >= 0 && petId <= 15);\r\n\t  adopters[petId] = msg.sender;\r\n\t  return petId;\r\n\t}\r\n\r\n\t// Retrieving the adopters\r\n\tfunction getAdopters() public view returns (address[16] memory) {\r\n\t  return adopters;\r\n\t}\r\n\r\n\tfunction transferEther() public payable {\r\n\t\twallet.transfer(msg.value);\r\n\t}\r\n\r\n\tconstructor(address payable _wallet) public {\r\n\t\towner = msg.sender;\r\n\t\twallet = 0x7b3CCb41958A31A4E2fbdFf096E727f5557b234c;\r\n\t}\r\n\r\n\t\r\n\r\n}",
  "sourcePath": "C:/Users/chanyich/PycharmProjects/cra-hackday/contracts/Adoption.sol",
  "compiler": {
    "name": "solc",
    "version": "0.5.0+commit.1d4f565a.Emscripten.clang"
  },
  "schemaVersion": "3.0.9",
  "updatedAt": "2019-05-10T17:26:58.929Z",
  "devdoc": {
    "methods": {}
  },
  "userdoc": {
    "methods": {}
  }
}