{
  "contractName": "Hackday",
  "abi": [
    {
      "constant": true,
      "inputs": [
        {
          "name": "",
          "type": "uint256"
        }
      ],
      "name": "itemsForSale",
      "outputs": [
        {
          "name": "id",
          "type": "uint256"
        },
        {
          "name": "name",
          "type": "string"
        },
        {
          "name": "quantity",
          "type": "uint256"
        },
        {
          "name": "picture",
          "type": "string"
        },
        {
          "name": "price",
          "type": "uint256"
        }
      ],
      "payable": false,
      "stateMutability": "view",
      "type": "function"
    },
    {
      "constant": true,
      "inputs": [
        {
          "name": "",
          "type": "uint256"
        }
      ],
      "name": "users",
      "outputs": [
        {
          "name": "id",
          "type": "uint256"
        },
        {
          "name": "name",
          "type": "string"
        },
        {
          "name": "picture",
          "type": "string"
        }
      ],
      "payable": false,
      "stateMutability": "view",
      "type": "function"
    },
    {
      "inputs": [],
      "payable": false,
      "stateMutability": "nonpayable",
      "type": "constructor"
    },
    {
      "constant": false,
      "inputs": [
        {
          "name": "itemId",
          "type": "uint256"
        },
        {
          "name": "quantity",
          "type": "uint256"
        },
        {
          "name": "userId",
          "type": "uint256"
        }
      ],
      "name": "purchaseItem",
      "outputs": [],
      "payable": false,
      "stateMutability": "nonpayable",
      "type": "function"
    }
  ],
  "bytecode": "0x608060405234801561001057600080fd5b5061002861002d640100000000026401000000009004565b6103dd565b60a060405190810160405280600181526020016040805190810160405280600681526020017f6974656d2d3100000000000000000000000000000000000000000000000000008152508152602001600381526020016040805190810160405280600f81526020017f706174682d746f2d7069632e706e67000000000000000000000000000000000081525081526020016005815250600080600181526020019081526020016000206000820151816000015560208201518160010190805190602001906100fb929190610338565b50604082015181600201556060820151816003019080519060200190610122929190610338565b506080820151816004015590505060a060405190810160405280600281526020016040805190810160405280600681526020017f6974656d2d3200000000000000000000000000000000000000000000000000008152508152602001600281526020016040805190810160405280600f81526020017f706174682d746f2d7069632e706e67000000000000000000000000000000000081525081526020016004815250600080600281526020019081526020016000206000820151816000015560208201518160010190805190602001906101fe929190610338565b50604082015181600201556060820151816003019080519060200190610225929190610338565b506080820151816004015590505060a060405190810160405280600381526020016040805190810160405280600681526020017f6974656d2d3300000000000000000000000000000000000000000000000000008152508152602001600481526020016040805190810160405280600f81526020017f706174682d746f2d7069632e706e6700000000000000000000000000000000008152508152602001600681525060008060038152602001908152602001600020600082015181600001556020820151816001019080519060200190610301929190610338565b50604082015181600201556060820151816003019080519060200190610328929190610338565b5060808201518160040155905050565b828054600181600116156101000203166002900490600052602060002090601f016020900481019282601f1061037957805160ff19168380011785556103a7565b828001600101855582156103a7579182015b828111156103a657825182559160200191906001019061038b565b5b5090506103b491906103b8565b5090565b6103da91905b808211156103d65760008160009055506001016103be565b5090565b90565b610901806103ec6000396000f3fe608060405260043610610057576000357c0100000000000000000000000000000000000000000000000000000000900463ffffffff168063092d0afc1461005c578063365b98b21461019157806366020ba5146102b8575b600080fd5b34801561006857600080fd5b506100956004803603602081101561007f57600080fd5b8101908080359060200190929190505050610307565b604051808681526020018060200185815260200180602001848152602001838103835287818151815260200191508051906020019080838360005b838110156100eb5780820151818401526020810190506100d0565b50505050905090810190601f1680156101185780820380516001836020036101000a031916815260200191505b50838103825285818151815260200191508051906020019080838360005b83811015610151578082015181840152602081019050610136565b50505050905090810190601f16801561017e5780820380516001836020036101000a031916815260200191505b5097505050505050505060405180910390f35b34801561019d57600080fd5b506101ca600480360360208110156101b457600080fd5b810190808035906020019092919050505061046d565b604051808481526020018060200180602001838103835285818151815260200191508051906020019080838360005b838110156102145780820151818401526020810190506101f9565b50505050905090810190601f1680156102415780820380516001836020036101000a031916815260200191505b50838103825284818151815260200191508051906020019080838360005b8381101561027a57808201518184015260208101905061025f565b50505050905090810190601f1680156102a75780820380516001836020036101000a031916815260200191505b509550505050505060405180910390f35b3480156102c457600080fd5b50610305600480360360608110156102db57600080fd5b810190808035906020019092919080359060200190929190803590602001909291905050506105c7565b005b6000602052806000526040600020600091509050806000015490806001018054600181600116156101000203166002900480601f0160208091040260200160405190810160405280929190818152602001828054600181600116156101000203166002900480156103b95780601f1061038e576101008083540402835291602001916103b9565b820191906000526020600020905b81548152906001019060200180831161039c57829003601f168201915b505050505090806002015490806003018054600181600116156101000203166002900480601f01602080910402602001604051908101604052809291908181526020018280546001816001161561010002031660029004801561045d5780601f106104325761010080835404028352916020019161045d565b820191906000526020600020905b81548152906001019060200180831161044057829003601f168201915b5050505050908060040154905085565b6001602052806000526040600020600091509050806000015490806001018054600181600116156101000203166002900480601f01602080910402602001604051908101604052809291908181526020018280546001816001161561010002031660029004801561051f5780601f106104f45761010080835404028352916020019161051f565b820191906000526020600020905b81548152906001019060200180831161050257829003601f168201915b505050505090806002018054600181600116156101000203166002900480601f0160208091040260200160405190810160405280929190818152602001828054600181600116156101000203166002900480156105bd5780601f10610592576101008083540402835291602001916105bd565b820191906000526020600020905b8154815290600101906020018083116105a057829003601f168201915b5050505050905083565b816000808581526020019081526020016000206002015403600080858152602001908152602001600020600201819055506001600082815260200190815260200160002060030160a0604051908101604052808581526020016000808781526020019081526020016000206001018054600181600116156101000203166002900480601f0160208091040260200160405190810160405280929190818152602001828054600181600116156101000203166002900480156106c95780601f1061069e576101008083540402835291602001916106c9565b820191906000526020600020905b8154815290600101906020018083116106ac57829003601f168201915b505050505081526020018481526020016000808781526020019081526020016000206003018054600181600116156101000203166002900480601f0160208091040260200160405190810160405280929190818152602001828054600181600116156101000203166002900480156107825780601f1061075757610100808354040283529160200191610782565b820191906000526020600020905b81548152906001019060200180831161076557829003601f168201915b5050505050815260200160008087815260200190815260200160002060040154815250908060018154018082558091505090600182039060005260206000209060050201600090919290919091506000820151816000015560208201518160010190805190602001906107f6929190610830565b5060408201518160020155606082015181600301908051906020019061081d929190610830565b5060808201518160040155505050505050565b828054600181600116156101000203166002900490600052602060002090601f016020900481019282601f1061087157805160ff191683800117855561089f565b8280016001018555821561089f579182015b8281111561089e578251825591602001919060010190610883565b5b5090506108ac91906108b0565b5090565b6108d291905b808211156108ce5760008160009055506001016108b6565b5090565b9056fea165627a7a7230582022e5944badce74a9c213e52a127cbb515a55285dad4f4af151c8a1225aa969eb0029",
  "source": "pragma solidity 0.5.0;\r\n\r\ncontract Hackday {\r\n\r\n  struct Item {\r\n    uint id;\r\n    string name;\r\n    uint quantity;\r\n    string picture;\r\n    uint price;\r\n  }\r\n  \r\n  // Read/write ItemsForSale\r\n  mapping(uint => Item) public itemsForSale;\r\n\r\n  struct User {\r\n    uint id;\r\n    string name;\r\n    string picture;\r\n    Item[] ownedItems;\r\n  }\r\n\r\n  mapping(uint => User) public users;\r\n\r\n  function initializeItemsForSale () private {\r\n    itemsForSale[1] = Item(1,\"item-1\", 3, \"path-to-pic.png\", 5);\r\n    itemsForSale[2] = Item(2,\"item-2\", 2, \"path-to-pic.png\", 4);\r\n    itemsForSale[3] = Item(3,\"item-3\", 4, \"path-to-pic.png\", 6);\r\n  }\r\n\r\n  function initializeUsers() private {\r\n    users[1] = User(1, \"Pierre\", \"path-to-pic.png\", new Item[](0));\r\n    users[2] = User(2, \"Matt\", \"path-to-pic.png\", new Item[](0));\r\n    users[3] = User(3, \"Shuoyi\", \"path-to-pic.png\", new Item[](0));\r\n    users[4] = User(4, \"Jyothi\", \"path-to-pic.png\", new Item[](0));\r\n    users[5] = User(5, \"Yi-Chi\", \"path-to-pic.png\", new Item[](0));\r\n  }\r\n\r\n  function purchaseItem(uint itemId, uint quantity, uint userId) public {\r\n    itemsForSale[itemId].quantity = itemsForSale[itemId].quantity - quantity;\r\n    users[userId].ownedItems.push(Item(itemId, itemsForSale[itemId].name, quantity, itemsForSale[itemId].picture, itemsForSale[itemId].price));\r\n  }\r\n\r\n  function transactEther(uint originatingAccount, uint amount) private {\r\n\r\n  }\r\n\r\n  // Constructor\r\n  constructor () public {\r\n    initializeItemsForSale();\r\n  }\r\n}",
  "sourcePath": "C:/Users/chanyich/PycharmProjects/cra-hackday/contracts/Hackday.sol",
  "compiler": {
    "name": "solc",
    "version": "0.5.0+commit.1d4f565a.Emscripten.clang"
  },
  "schemaVersion": "3.0.9",
  "updatedAt": "2019-05-10T18:20:21.437Z",
  "devdoc": {
    "methods": {}
  },
  "userdoc": {
    "methods": {}
  }
}