{
  "contractName": "MyContract",
  "abi": [
    {
      "constant": true,
      "inputs": [
        {
          "name": "",
          "type": "address"
        }
      ],
      "name": "balances",
      "outputs": [
        {
          "name": "",
          "type": "uint256"
        }
      ],
      "payable": false,
      "stateMutability": "view",
      "type": "function"
    },
    {
      "inputs": [
        {
          "name": "_wallet",
          "type": "address"
        }
      ],
      "payable": false,
      "stateMutability": "nonpayable",
      "type": "constructor"
    },
    {
      "payable": true,
      "stateMutability": "payable",
      "type": "fallback"
    },
    {
      "anonymous": false,
      "inputs": [
        {
          "indexed": true,
          "name": "_buyer",
          "type": "address"
        },
        {
          "indexed": false,
          "name": "_amount",
          "type": "uint256"
        }
      ],
      "name": "Purchase",
      "type": "event"
    },
    {
      "constant": false,
      "inputs": [],
      "name": "buyToken",
      "outputs": [],
      "payable": true,
      "stateMutability": "payable",
      "type": "function"
    }
  ],
  "bytecode": "0x608060405234801561001057600080fd5b506040516020806102a28339810180604052602081101561003057600080fd5b810190808051906020019092919050505080600160006101000a81548173ffffffffffffffffffffffffffffffffffffffff021916908373ffffffffffffffffffffffffffffffffffffffff16021790555050610210806100926000396000f3fe60806040526004361061004c576000357c0100000000000000000000000000000000000000000000000000000000900463ffffffff16806327e235e314610056578063a4821719146100bb575b6100546100c5565b005b34801561006257600080fd5b506100a56004803603602081101561007957600080fd5b81019080803573ffffffffffffffffffffffffffffffffffffffff1690602001909291905050506101cc565b6040518082815260200191505060405180910390f35b6100c36100c5565b005b60016000803373ffffffffffffffffffffffffffffffffffffffff1673ffffffffffffffffffffffffffffffffffffffff16815260200190815260200160002060008282540192505081905550600160009054906101000a900473ffffffffffffffffffffffffffffffffffffffff1673ffffffffffffffffffffffffffffffffffffffff166108fc349081150290604051600060405180830381858888f1935050505015801561017a573d6000803e3d6000fd5b503373ffffffffffffffffffffffffffffffffffffffff167f2499a5330ab0979cc612135e7883ebc3cd5c9f7a8508f042540c34723348f63260016040518082815260200191505060405180910390a2565b6000602052806000526040600020600091509050548156fea165627a7a72305820f7020ed9c6471321895874de2e5052d1e532fc912cfb26b675b7fe4261b2ad9e0029",
  "source": "pragma solidity >=0.4.22 <0.6.0;\r\ncontract MyContract {\r\n    mapping(address => uint256) public balances;\r\n    address payable wallet;\r\n    \r\n    event Purchase(\r\n        address indexed _buyer,\r\n        uint256 _amount\r\n    );\r\n    constructor(address payable _wallet) public {\r\n        wallet = _wallet;\r\n    }\r\n\r\n    function() external payable {\r\n        buyToken();\r\n    }\r\n\r\n    function buyToken() public payable {\r\n        balances[msg.sender] += 1;\r\n        wallet.transfer(msg.value);\r\n        emit Purchase(msg.sender, 1);\r\n    }\r\n}\r\n",
  "sourcePath": "C:/Users/zhama/ERS/cra-hackday/contracts/Election.sol",
  "compiler": {
    "name": "solc",
    "version": "0.5.0+commit.1d4f565a.Emscripten.clang"
  },
  "schemaVersion": "3.0.9",
  "updatedAt": "2019-05-10T16:14:55.015Z",
  "devdoc": {
    "methods": {}
  },
  "userdoc": {
    "methods": {}
  }
}